:100000000C943E000C9448000C9448000C9448005A
:100010000C9448000C9448000C9448000C94480040
:100020000C9448000C9448000C9448000C94480030
:100030000C9448000C9448000C9448000C94480020
:100040000C9448000C9448000C9448000C94480010
:100050000C9448000C9448000C9448000C94480000
:100060000C9448000C9448005300560059005C0062
:100070005F006200650068006B006E0011241FBE07
:10008000CFEFD8E0DEBFCDBF0E94DC000C9444016E
:100090000C94000090E08A30910510F5FC01EC5CB6
:1000A000FF4F0C943E0181E88BB9089587EE8BB920
:1000B000089589E48BB9089583E48BB9089587E2A4
:1000C0008BB9089583E18BB9089581E18BB90895C7
:1000D00087EC8BB9089581E08BB9089583E08BB9E3
:1000E0000895EAE7F0E0808180648083808184FF66
:1000F000FDCF80917800909179008115924048F071
:1001000080917800909179008036924010F48CE3D1
:1001100088B980917800909179008036924048F0BB
:100120008091780090917900803C924010F48CE1AD
:1001300088B98091780090917900803C924048F095
:1001400080917800909179008032934010F48CE097
:1001500088B980917800909179008032934048F07E
:1001600080917800909179008038934010F484E079
:1001700088B9EAE7F0E080818061808381E4809340
:100180007C00808180648083808184FFFDCF8091AA
:100190007800909179008C38910518F428982B9864
:1001A00002C0289A2B9AEAE7F0E080818061808380
:1001B00080E480937C0008958FEF8AB9219822987B
:1001C000299A2A9A87B18C6387B938983998419AC5
:1001D000209A239A80E480937C0087E880937A00B9
:1001E00010E0D0E0C0E0F12C01E0CC2319F00E9437
:1001F000710005C088B1837C88B928982B9819991B
:100200000BC02FE986E891E0215080409040E1F753
:1002100000C00000D02F02C0DD2339F0199928C09A
:10022000199BFECF25C0CF5FDF2D1A990BC02FE998
:1002300086E891E0215080409040E1F700C0000046
:10024000102F02C0112339F01A9915C01A9BFECF46
:1002500012C0C1501F2D8C2F0E944A002FE986E842
:1002600091E0215080409040E1F700C00000BDCFF8
:10027000C930C8F2DACFC111ECCFEDCFEE0FFF1FBE
:0C0280000590F491E02D0994F894FFCF54
:00000001FF
